:100000000C94650A0C948F0A0C948F0A0C948F0A36
:100010000C948F0A0C948F0A0C948F0A0C948F0AFC
:100020000C948F0A0C948F0A0C94A92E0C94262FF2
:100030000C948F0A0C948F0A0C948F0A0C948F0ADC
:100040000C948F0A0C948F0A0C948F0A0C948F0ACC
:100050000C948F0A0C948F0A0C948F0A0C94082E1F
:100060000C948F0A0C948F0A0C948F0A0C948F0AAC
:100070000C948F0A0C948F0A0C948F0A0C948F0A9C
:100080000C948F0A0C948F0A0C948F0A0C948F0A8C
:100090000C948F0A0C948F0A08000000BE92244929
:1000A000123EABAAAA2ABECDCCCC4C3E00000080AA
:1000B000BEABAAAAAA3E00000000BF000000803F1D
:1000C0000000000000084178D3BB4387D1133D19DD
:1000D0000E3CC3BD4282AD2B3E68EC8276BED98F0A
:1000E000E1A93E4C80EFFFBE01C4FF7F3F0000004E
:1000F00000004E414E494E495459494E46CDCCCC54
:100100003D0AD7233C17B7D13877CC2B329595E6EB
:10011000241FB14F0A000020410000C84200401CCB
:100120004620BCBE4CCA1B0E5AAEC59D743D3D3D1B
:100130003D3D3D3D3D3D3D3D3D3D3D3D3D3D3D3DEF
:100140003D3D3D3D3D3D3D3D3D3D3D3D3D3D3D3DDF
:10015000002020547970652027726573657427200C
:100160007768656E20646F6E652E00202043686599
:10017000636B20796F757220656767732F63686999
:10018000636B732E002020494E4355424154494F22
:100190004E20434F4D504C45544521003D3D3D3D83
:1001A0003D3D3D3D3D3D3D3D3D3D3D3D3D3D3D3D7F
:1001B0003D3D3D3D3D3D3D3D3D3D3D3D3D3D3D00AC
:1001C000003E3E20456767207475726E696E672039
:1001D00053544F5050454420286C6F636B646F77C5
:1001E0006E292E00206F6620003E3E20446179205B
:1001F000003E3E2054656D706572617475726520B5
:10020000737461626C652120494E435542415449E3
:100210004F4E20535441525445442E00547970653A
:100220002027737065636965732720746F20736579
:1002300065206F7074696F6E732C207468656E2012
:100240002773656C656374203C6E616D653E272085
:10025000616E6420277374617274272E004E6F20C4
:10026000736176656420737461746520666F756E62
:10027000642E20526561647920666F72206E657706
:1002800020696E6375626174696F6E2E003D3D3D3D
:100290003D3D3D3D3D3D3D3D3D3D3D3D3D3D3D3D8E
:1002A0003D3D3D3D3D3D3D3D3D3D3D3D3D3D3D3D7E
:1002B0003D3D3D3D3D00202054797065202772650D
:1002C0007365742720746F20737461727420667272
:1002D0006573682E0020205479706520277265733D
:1002E000756D652720746F20636F6E74696E756518
:1002F00020696E6375626174696F6E2E00002068FC
:100300006F757273002020456C61707365643A20CC
:1003100000206F66200020204461793A200050417F
:1003200055534544004841544348494E47004C4FBB
:10033000434B444F574E00494E4355424154494E5A
:100340004700202053746174653A200020205370C8
:1003500065636965733A20003D3D3D3D3D3D3D3D52
:100360003D3D3D3D3D3D3D3D3D3D3D3D3D3D3D3DBD
:100370003D3D3D3D3D3D3D3D3D3D3D3D3D3D3D3DAD
:10038000002020504F574552205245434F5645526A
:1003900059204445544543544544003D3D3D3D3D71
:1003A0003D3D3D3D3D3D3D3D3D3D3D3D3D3D3D3D7D
:1003B0003D3D3D3D3D3D3D3D3D3D3D3D3D3D3D3D6D
:1003C0003D3D3D005B4155544F54554E455D2056D3
:1003D000616C756573206170706C6965642E205561
:1003E000736520277361766527206F7220746865B6
:1003F000792070657273697374206174206E6578FA
:100400007420454550524F4D20736176652E002073
:10041000204B643D0020204B693D005B4155544F0B
:1004200054554E455D204E6577205049443A204B47
:10043000703D007300202054753D005B4155544FC2
:1004400054554E455D204B753D005B4155544F540E
:10045000554E455D203D3D3D3D3D3D3D3D3D3D20B5
:10046000434F4D504C455445203D3D3D3D3D3D3D68
:100470003D3D3D000020204D696E3A200043202084
:100480004D61783A20002020416D706C697475646C
:10049000653A20002F005B4155544F54554E455D41
:1004A000204379636C6520005B4155544F54554E91
:1004B000455D2048656174696E6720746F207365BF
:1004C00074706F696E742E2E2E00432C2043796356
:1004D0006C65733A20005B4155544F54554E455D51
:1004E00020536574706F696E743A20005B415554F7
:1004F0004F54554E455D205374617274696E672088
:10050000504944206175746F74756E652E2E2E00EF
:100510005741524E494E473A204448543232207394
:10052000656E736F722072656164206661696C75B7
:1005300072657320E28094207573696E67206C6128
:100540007374206B6E6F776E2068756D6964697463
:10055000792E002520E2809420526566696C6C201B
:1005600077617465722074726179212021212100E4
:10057000212121205741524E494E473A2048756D5E
:100580006964697479204C4F57200025202121216E
:1005900000212121205741524E494E473A204875AB
:1005A0006D69646974792048494748200043206692
:1005B0006F72203E3130206D696E20212121002193
:1005C0002121205741524E494E473A20556E6465CD
:1005D000722D74656D70200043202121210043207D
:1005E0003E200021212120414C41524D3A204F56BE
:1005F00045522D54454D5020002121212048656150
:10060000746572207368757420646F776E20666FEE
:1006100072207361666574792020202121210021D8
:10062000212120414C41524D3A20546865726D6938
:1006300073746F722073656E736F72204641494CFC
:1006400045442021212100252900202868756D6955
:1006500064697479202D3E200020204C6F636B6408
:100660006F776E20646179200025207C205475729C
:100670006E732F6461793A200043207C2048756DA9
:1006800069646974793A2000202054656D703A20BD
:1006900000206461797329002028002020537065B0
:1006A000636965733A20002520524800432C2000DE
:1006B00020646179732C20002D20002E2000202042
:1006C00000417661696C61626C652070726573656A
:1006D00074733A00436869636B656E000000000044
:1006E000151277012D37414605506967656F6E0019
:1006F0000000000000120F7701323C414B0351759E
:1007000061696C00000000000000120F77012D32BB
:100710004146044475636B00000000000000001CAB
:10072000197701373C414B045475726B65790000B1
:10073000000000001C197701323C414605476F6FED
:100740007365000000000000001E1B770132374671
:100750004B054775696E65610000000000001C19BB
:1007600077012D32414604437573746F6D000000AC
:10077000000000000077012D374146055B535441CE
:1007800054455D202D3E2049444C45202872657318
:10079000657429005B53544154455D20212121207B
:1007A0004552524F5220535441544520212121009B
:1007B0005B53544154455D2021212120454D455234
:1007C00047454E43592053544F5020212121005B6F
:1007D00053544154455D202D3E20524553554D45BF
:1007E0004420746F20005B53544154455D202D3EDE
:1007F00020504155534544005B53544154455D20BE
:100800002D3E20444F4E452028696E637562617409
:10081000696F6E20636F6D706C65746529005B5342
:10082000544154455D202D3E204841544348494E93
:10083000472028776174636820666F722063686957
:10084000636B732129005B53544154455D202D3E59
:10085000204C4F434B444F574E20287475726E699D
:100860006E672073746F707065642C2068756D6995
:100870006469747920696E637265617365642900C7
:100880005B53544154455D202D3E20494E43554213
:100890004154494E47202865676773207475726E0E
:1008A000696E6720616374697665290020646174EC
:1008B000613D00554E4B4E4F574E0055534552200B
:1008C00053544F50004155544F54554E4520444FBA
:1008D0004E450048554D4944204C4F570048554D12
:1008E000494420484947480053454E534F522046FB
:1008F00041494C00554E4445522D54454D50004FF2
:100900005645522D54454D5000504F574552205298
:1009100045434F5645525900524553554D45005099
:100920004155534500444F4E4500484154434849C2
:100930004E47004C4F434B444F574E005354415287
:100940005400424F4F54005D200020205B0045764C
:10095000656E74204C6F673A005B53544F524147A9
:10096000455D20454550524F4D20636C6561726571
:10097000642E005475726E696E67206E6F7420610C
:100980006C6C6F77656420696E2063757272656E3A
:10099000742073746174652E003E3E2042757A7A2D
:1009A00065722073696C656E6365642E20416C61AD
:1009B000726D20666C6167732072656D61696E206F
:1009C0006163746976652E003E3E205265736574DE
:1009D00020636F6D706C6574652E20416C6C2073A4
:1009E000657474696E677320726573746F72656481
:1009F00020746F2064656661756C74732E003E3ED2
:100A000020466163746F727920726573657420E2A9
:100A1000809420636C656172696E67204545505211
:100A20004F4D2E2E2E0055736167653A2073657405
:100A30002074656D707C68756D69646974797C700B
:100A400069647C7475726E737C66616E203C76613D
:100A50006C7565733E003E3E2046616E2072616E8D
:100A600067653A20003E3E205475726E73207065B3
:100A700072206461793A20005475726E73206D752E
:100A8000737420626520312D32342E00204B643D7A
:100A900000204B693D003E3E205049443A204B70B7
:100AA0003D0025003E3E2048756D696469747920DB
:100AB0007461726765743A200048756D6964697481
:100AC000792072616E6765206D7573742062652090
:100AD00032302D3930252E0043003E3E2054656DC6
:100AE000706572617475726520736574706F696E7C
:100AF000743A200054656D7065726174757265207A
:100B00006D7573742062652033302D3432432E00AE
:100B10003D3D3D3D3D3D3D3D3D3D3D3D3D3D3D3D05
:100B20003D3D3D3D3D3D3D3D3D3D3D3D3D3D3D3DF5
:100B30003D3D3D0020202A2A2A20414C41524D5360
:100B400020414354495645202A2A2A00204B643D1F
:100B500000204B693D0020205049443A204B703D15
:100B6000002020557074696D653A20006D00682082
:100B70000020205475726E65723A204E657874209C
:100B80007475726E20696E2000252050574D002527
:100B90002050574D207C2046616E3A20002020488E
:100BA00065617465723A200025290025202874614A
:100BB000726765743A2000202048756D69643A2098
:100BC000004329004320287461726765743A20004D
:100BD0004641494C00202054656D703A2020002089
:100BE0006F662000207C204461792000202053740F
:100BF0006174653A20003D3D3D3D3D3D3D3D3D3DFF
:100C00003D3D3D3D3D3D3D3D3D3D3D3D3D3D3D3D14
:100C10003D3D3D3D3D3D3D3D3D004E6F7468696E3F
:100C20006720746F20726573756D652E003E3E20DF
:100C3000524553554D45442E0043616E6E6F7420EE
:100C4000706175736520696E2063757272656E746C
:100C50002073746174652E003E3E2050415553450B
:100C6000442E20486561746572206D61696E7461FF
:100C7000696E732074656D702C2074696D657220C7
:100C800073746F707065642E002020205479706535
:100C9000202773746F702720746F2063616E636503
:100CA0006C2E003E3E20504944204175746F74758F
:100CB0006E6520737461727465642E205468697364
:100CC0002077696C6C2074616B652031302D323077
:100CD000206D696E757465732E004175746F74753F
:100CE0006E652063616E206F6E6C792072756E2068
:100CF00066726F6D2049444C452073746174652E93
:100D000020557365202773746F702720666972738E
:100D1000742E00202020557365202773746172742F
:100D20002720746F20626567696E2061206E657789
:100D3000206379636C652E003E3E2053544F505023
:100D400045442E20486561746572204F46462C202C
:100D50007475726E6572204F46462C2066616E2057
:100D60004F46462E00202020496E637562617469EB
:100D70006F6E20626567696E73207768656E207498
:100D8000656D7020697320737461626C6520666F95
:100D900072203330206D696E2E002020204865615E
:100DA000746572204F4E207C2046616E204F4E00AD
:100DB0002064617973290020280043207C2053702F
:100DC00065636965733A200020202054617267656D
:100DD000743A20003E3E2050524548454154494E09
:100DE000472E2E2E2053746162696C697A696E6792
:100DF0002074656D70657261747572652E00436153
:100E00006E6E6F7420737461727420E2809420633C
:100E10007573746F6D2073706563696573206861A5
:100E200073203020646179732E20436F6E6669678A
:100E30007572652066697273742E0043616E6E6F01
:100E40007420737461727420E2809420616C726506
:100E50006164792072756E6E696E672E20557365B8
:100E6000202773746F70272066697273742E003E9A
:100E70003E20537065636965732073657420746FD9
:100E80002000547970652027737065636965732746
:100E900020746F206C69737420617661696C616283
:100EA0006C6520707265736574732E00556E6B6E81
:100EB0006F776E20737065636965733A20004361D4
:100EC0006E6E6F74206368616E6765207370656312
:100ED000696573207768696C6520696E6375626106
:100EE00074696F6E206973206163746976652E2062
:100EF000557365202773746F702720666972737449
:100F00002E0055736167653A2073656C65637420C4
:100F10003C73706563696573206E616D653E00208A
:100F20002068656C70202020202020202020202098
:100F300020202020202053686F7720746869732058
:100F400068656C7000202072657365742020202015
:100F50002020202020202020202020204661637493
:100F60006F72792072657365742028636C65617295
:100F700020454550524F4D2900202073696C656E05
:100F800063652020202020202020202020202020D9
:100F900053696C656E63652062757A7A657220614B
:100FA0006C61726D0020206C6F6720202020202053
:100FB00020202020202020202020202053686F7710
:100FC000206576656E74206C6F67002020747572E2
:100FD0006E202020202020202020202020202020C3
:100FE0002020466F72636520616E20696D6D6564B7
:100FF0006961746520656767207475726E002020D2
:101000007365742066616E203C6D696E3E203C6D98
:1010100061783E20205365742066616E2073706590
:1010200065642072616E67652028302D3235352960
:10103000002020736574207475726E73203C4E3EE0
:101040002020202020202020536574207475726E8B
:1010500073207065722064617900202073657420AC
:10106000706964203C4B703E203C4B693E203C4BF9
:10107000643E2020536574205049442074756E6985
:101080006E670020207365742068756D69646974EB
:1010900079203C6C6F3E203C68693E20204F76658D
:1010A00072726964652068756D696469747920720B
:1010B000616E6765202825290020207365742074DF
:1010C000656D70203C433E202020202020202020E1
:1010D0004F766572726964652074656D70657261C2
:1010E0007475726520736574706F696E740020206A
:1010F000737461747573202020202020202020200C
:10110000202020202053686F772064657461696C0B
:101110006564207374617475730020207265737543
:101120006D6520202020202020202020202020202D
:1011300020526573756D6520696E637562617469AF
:101140006F6E202F20706F776572207265636F76E7
:101150006572790020207061757365202020202041
:101160002020202020202020202020506175736521
:1011700020696E6375626174696F6E00202061750D
:10118000746F74756E652020202020202020202080
:1011900020202052756E20504944206175746F7470
:1011A000756E6500202073746F7020202020202031
:1011B0002020202020202020202020456D657267DF
:1011C000656E63792073746F700020207374617290
:1011D00074202020202020202020202020202020BB
:1011E00020426567696E20696E6375626174696F1C
:1011F0006E206379636C6500202073656C65637491
:10120000203C6E616D653E20202020202020205350
:10121000656C656374207370656369657320286508
:101220002E672E2C2073656C656374206368696378
:101230006B656E29002020737065636965732020DB
:101240002020202020202020202020204C69737482
:1012500020617661696C61626C6520737065636999
:101260006573207072657365747300434F4D4D4113
:101270004E44533A000054797065202768656C70BD
:101280002720666F7220617661696C61626C6520EF
:10129000636F6D6D616E64732E00556E6B6E6F774C
:1012A0006E20636F6D6D616E643A2000252053548B
:1012B0004154453D00252046414E3D0025204854DF
:1012C000523D004320483D005D20543D005B4441B9
:1012D00059200025004320483D005B49444C455DB2
:1012E00020543D00202054797065202768656C707B
:1012F0002720666F7220636F6D6D616E64732E00C0
:101300003D3D3D3D3D3D3D3D3D3D3D3D3D3D3D3D0D
:101310003D3D3D3D3D3D3D3D3D3D3D3D3D3D3D3DFD
:101320003D3D3D3D3D3D3D3D3D3D3D3D3D3D3D3DED
:101330003D3D3D0020204154393055534231323833
:1013400036207C20437573746F6D204669726D770B
:1013500061726500202045474720494E4355424170
:10136000544F522076312E3020E280942050726902
:101370006E7472626F617264205265762044003D23
:101380003D3D3D3D3D3D3D3D3D3D3D3D3D3D3D3D8D
:101390003D3D3D3D3D3D3D3D3D3D3D3D3D3D3D3D7D
:1013A0003D3D3D3D3D3D3D3D3D3D3D3D3D3D3D3D6D
:1013B0003D3D0043435700435700646567200020CC
:1013C0002D20002F005B5455524E45525D20537422
:1013D000617274696E67207475726E200020636F8D
:1013E0006D706C6574652E002F005B5455524E4530
:1013F000525D205475726E200000010000AA141284
:10140000000200006714430003000063140401039A
:1014100009044914180203090431141603030904CA
:1014200023140C0C0331003200330034003500006B
:10143000001603550053004200200053006500725F
:1014400000690061006C000000180354006500652D
:10145000006E00730079006400750069006E006F13
:101460000000000403090409024300020100C03225
:1014700009040000010202010005240010010524F6
:101480000100010424020605240600010705820369
:1014900008004009040100020A00000007050302D9
:1014A0004000000705840240000012010002020013
:1014B0000020C01683047202010203010001C10270
:1014C0000180360181368F127F3211241FBECFEF8B
:1014D000D0E2DEBFCDBF12E0A0E0B1E0EEE4F5E780
:1014E00000E00BBF02C007900D92A832B107D9F7F8
:1014F00023E0A8E2B2E001C01D92AA37B207E1F7EB
:101500001AE0C5E6DAE004C02197FE010E94C93264
:10151000C336D107C9F70E946B2D0C94A53A0C94E1
:101520000000FC0110821182128213821482158243
:1015300016821782108611861286138614860895E5
:10154000FC01118212821382148211861286138684
:1015500014860FB6F8948091630390916403A09170
:101560006503B09166030FBE85839683A783B0871A
:1015700081E080830895FC014183528363837483F7
:1015800011861286138614860FB6F8948091630331
:1015900090916403A0916503B09166030FBE8583AB
:1015A0009683A783B08781E0808308950FB6F8946F
:1015B00040916303509164036091650370916603E9
:1015C0000FBEFC01458356836783708721E020832B
:1015D00008950F931F93FC018081882309F441C073
:1015E0000FB6F8948091630390916403A091650312
:1015F000B09166030FBE05811681278130858583F2
:101600009683A783B0874185528563857485401B87
:10161000510B620B730B840F951FA61FB71F818799
:101620009287A387B48781859285A385B485883EF8
:1016300023E09207A105B105A0F0885E9340A109BF
:10164000B10981879287A387B48781819281A38121
:10165000B4810196A11DB11D81839283A383B483BC
:10166000E2CF1F910F910895CF93DF93FC0120816A
:10167000222319F0EC01ADDF1882DF91CF9108959C
:10168000FC0161817281838194810895FC016181F3
:1016900072818381948120E831E541E050E00E942D
:1016A000A732C90101960895FC016181728183818D
:1016B000948120E831E541E050E00C94A7328F920C
:1016C0009F92AF92BF92CF92DF92EF92FF921F93C1
:1016D000CF93DF93EB01142FFC0161817281838131
:1016E000948120E831E541E050E00E94A732690191
:1016F0007A0120E13EE040E050E00E94A73249013B
:101700005A012CE330E040E050E00E94A7323F93C2
:101710002F939F928F92DF92CF928DE191E09F93D2
:101720008F931F921F93DF93CF930E943836EDB7AC
:10173000FEB73C960FB6F894FEBF0FBEEDBFDF912B
:10174000CF911F91FF90EF90DF90CF90BF90AF901F
:101750009F908F900895CF93DF93EC013ADF18822A
:10176000DF91CF910895FC018CE4808388E281832E
:101770008FEF828313828FEF9FEF95838483089589
:101780003E9AFC0180813E9A90E09093990080936C
:101790009800E0E9F0E08081806880830895A0E00F
:1017A000B0E0E5EDFBE00C94F332EC018B81882393
:1017B00051F08C819D8188833E9A9927909399005E
:1017C00080939800E2C0480159012A013B012AE9AF
:1017D00039E949E95EEBC301B2010E948D3387FF0D
:1017E0002AC02AE939E949E95EE3C301B201905808
:1017F0000E94283320E030E048EC52E40E94253576
:101800006B017C0120E030E048E453E40E94DC34CA
:10181000181634F4C12CD12C38E4E32E33E4F32E23
:1018200020E030E048E952E4C701B6010E942933C4
:101830006B017C0106C0C12CD12C28E9E22E22E4E8
:10184000F22E20E030E040E85FEBC301B2010E94DD
:10185000DC3418160CF06AC020E030E040E85FE3AA
:10186000C301B2010E948D3387FF60C020E030E0E9
:1018700040E450E4C501B4010E94DC3418162CF594
:1018800020E030E040E450E4C501B4010E94283378
:1018900020E030E040EA50E40E9425354B015C0135
:1018A00020E030E040EA52E40E94DC34181634F4C0
:1018B000812C912C90EAA92E92E4B92EA5019401D5
:1018C000C701B6010E9429332FC020E030E040EA72
:1018D00050ECC501B4010E948D3387FF27C0C501BC
:1018E000B401905820E030E040EA50E40E942833F0
:1018F00020E030E040EA50E40E9425354B015C01D5
:1019000020E030E040E252E40E94DC34181634F467
:10191000812C912C80E2A82E82E4B82EA50194019E
:10192000C701B6010E9428336B017C01698170E018
:1019300080E090E00E942A344B015C019B01AC01E5
:10194000C701B6010E948D3387FF02C07501640193
:101950006A8170E080E090E00E942A344B015C01D3
:101960009B01AC01C701B6010E94DC34181614F4C7
:1019700075016401C701B6010E94FE3368833E9A77
:1019800070E0709399006093980080919000806857
:1019900080939000CDB7DEB7E0E10C940F33FC01EB
:1019A00077FF06C013828FEF9FEF9583848308959E
:1019B00081E083836F3F710519F014F06FEF70E0E1
:1019C0007583648360833E9A709399006093980056
:1019D000809190008068809390000895FC0161835D
:1019E0004283461708F441830895FC018081F4E6A0
:1019F0008F9FC00111246FEF70E00E949332862FF9
:101A00000895FC01928190833E9A892F90E09093F3
:101A1000990080939800E0E9F0E0808180688083FD
:101A20000895FC011082118212820895209A209A52
:101A300028980895FC012281211160E0FC01608357
:101A4000209A70E06038710514F428980895289A57
:101A5000089521E0FC0122831082209A289808959D
:101A6000CF92DF92EF92FF92CF93DF93EB0180E072
:101A700090E00E942A346B017C016FEF73E06C1BD5
:101A80007D0B80E090E00E942A349B01AC01C701ED
:101A9000B6010E94913320E030EE42E955E40E9405
:101AA000253520E030E543EC57E40E9491330E9455
:101AB000E53420E030EE46E755E40E9491332FE014
:101AC0003FEC4BE55BE30E9429339B01AC0160E0F6
:101AD00070E080E89FE30E94913323E333E948E814
:101AE00053E40E942833DF91CF91FF90EF90DF9075
:101AF000CF900895CF92DF92EF92FF921F93CF93F2
:101B0000DF93EC0110E1C12CD12C760180E00E9422
:101B1000B82D092E000CAA0BBB0BC80ED91EEA1E4D
:101B2000FB1E115099F7C701B60124E096958795E1
:101B3000779567952A95D1F79B01225031092C3F63
:101B4000334038F081E0898360E070EC89E794EC01
:101B500003C01982CE0184DFDF91CF911F91FF90E6
:101B6000EF90DF90CF900895FC01108211821282D5
:101B700013821482158216821782108608950D989A
:101B8000159A0895CF92DF92EF92FF92CF93DF9351
:101B9000EB010D9A159862E070E080E090E00E9401
:101BA000482E159A80EA81500000E9F70D98159AA1
:101BB00084E624E0059915C084E624E0059B1AC05C
:101BC00084E624E005991DC020E034E084E6059B0E
:101BD0001FC00E94682E6B017C0184E605991FC01E
:101BE00025C0815029F0922F91500000E9F7E2CFF3
:101BF00080E03EC08150E1F3922F91500000E9F760
:101C0000DDCF8150A9F3922F91500000E9F7DACF90
:101C1000815071F3932F91500000E9F7D8CF815094
:101C200039F3932F91500000E9F7D8CF0E94682E26
:101C3000422F469546954695FE01E40FF11D4081E1
:101C4000A42FAA0FAB01BC014C195D096E097F09D5
:101C5000493251056105710548F08A2F8160808302
:101C60002F5F283209F0B2CF81E002C0A083F8CF05
:101C7000DF91CF91FF90EF90DF90CF9008958F92FA
:101C80009F92AF92BF92DF92EF92FF920F931F93BA
:101C9000CF93DF9300D000D01F92CDB7DEB77C0189
:101CA000BE016F5F7F4F85E0FB0111928A95E9F7D6
:101CB000C70168DFD82E882309F469C099818A8119
:101CC000890F9B81890F9C81890F9D8189135FC03A
:101CD0006B817C81162F072F69817A817627672790
:101CE000762780E090E00E942A3420E030E040E255
:101CF00051E40E9491334B015C01F70160837183D1
:101D000082839383B80117FF07C07F7780E090E05C
:101D10000E942A34905804C080E090E00E942A3447
:101D200020E030E040E251E40E949133F701648307
:101D300075838683978320E030E0A901C501B40153
:101D40000E948D3387FD23C020E030E048EC52E450
:101D5000C501B4010E94DC341816CCF0F701848070
:101D60009580A680B78020E030E040E252ECC501CB
:101D7000B4010E948D3387FD0AC020E030E040EAC4
:101D800052E4C501B4010E94DC34181634F4F701A2
:101D900080858F5F8087D12C02C0F70110868D2D42
:101DA0000F900F900F900F900F90DF91CF911F9198
:101DB0000F91FF90EF90DF90BF90AF909F908F902A
:101DC00008950F931F93CF93DF93EC010E94422C51
:101DD0008C01CE010E94762C800F911FDF91CF9154
:101DE0001F910F9108950F931F93CF93DF93EC01F1
:101DF000462F50E060E070E020E00E948E2C8C01C5
:101E0000CE010E94762C800F911FDF91CF911F9100
:101E10000F910895A2E1B0E0E0E1FFE00C94F1320F
:101E20000FB6F8944090630350906403609065038C
:101E3000709066030FBE209129032A8B8FEA92E0EF
:101E4000C8DB82E492E00E94312A80913A029091AC
:101E50003B02A0913C02B0913D02A3019201281BDC
:101E6000390B4A0B5B0BDA01C90188389341A10594
:101E7000B105E8F040923A0250923B0260923C0277
:101E800070923D028BED92E0FADE882381F0809122
:101E9000DB029091DC02A091DD02B091DE02809322
:101EA0002C0290932D02A0932E02B0932F028091CA
:101EB0003E0290913F02A0914002B0914102A301E5
:101EC0009201281B390B4A0B5B0BDA01C901883ED2
:101ED0009340A105B10508F423C140923E025092FF
:101EE0003F02609240027092410284EE92E002DE74
:101EF00060933002709331028093320290933302E8
:101F000089E293E00E94171E882309F4FFC08091A4
:101F1000E502882321F084EE92E09BDDBBC0809136
:101F20000603C0903002D0903102E0903202F0906F
:101F30003302882309F494C0B701A60187EE92E02A
:101F400082D6898360910F0384EE92E073DD49812C
:101F5000442309F49FC089E293E00E94201D40E0E1
:101F600050E060E28EEA92E00E94CC1E89E293E0AB
:101F70000E94C31D6B017C0189E293E00E94911DC8
:101F800069877A878B879C878091EF029091F00216
:101F9000A091F102B091F20289839A83AB83BC8352
:101FA0002091EB023091EC024091ED025091EE0253
:101FB0002D833E834F8358878090E7029090E802FC
:101FC000A090E902B090EA023091C802398B8FEA02
:101FD00092E05CDB8C018FEA92E052DB6D877E87BA
:101FE0008F87988B20E030E040E251E4C701B601D2
:101FF0000E9425350E94FE337F936F9320E030E0EE
:1020000040E251E469857A858B859C850E9425355F
:102010000E94FE337F936F934C814F935B815F935C
:102020008A818F9399819F93A885AF93BF81BF9336
:102030002E812F933D813F93C98878010D851E85A0
:102040002F8538894091290360912B038EEA92E015
:102050000E949B200FB6F894DEBF0FBECDBF1AC002
:1020600020E030E040E252E4C701B6010E94DC34D7
:1020700018163CF484EE92E0ECDC8CEB92E0C1DCD0
:1020800009C0B701A60187EE92E07CD4682F84EEE8
:1020900092E0D0DC5A89513009F03CC089E293E0EB
:1020A0000E94911D8B019C014091300250913102A0
:1020B000609132027091330289E293E00E94271E00
:1020C0008091490390914A03A0914B03B0914C0336
:1020D00080349747AB41B10508F4F2C189E293E03F
:1020E0000E94B71C61E082EC92E00E94172B61EF26
:1020F00071E08EE693E065DE8FEA92E0C7DAAC012C
:1021000062E08EEA92E00E94CC1EDAC160E084EECA
:1021100092E090DC3A89332319F0353009F0D0C1D0
:1021200089E293E00E94101E882349F08FEA92E032
:10213000BBDAAB01BC0182EC92E00E94AC2B4A8975
:1021400042504983433008F08BC08FEA92E09EDA18
:102150008C0180913402909135020817190709F417
:1021600087C0109335020093340282EC92E00E9403
:10217000222B69EE71E08EE693E00E94422CA801CA
:1021800060E070E020E08EE693E00E948E2C64EE2A
:1021900071E08EE693E00E94422C609138038EE657
:1021A00093E021DEB80189E293E00E94EE1D8823CE
:1021B00009F45EC089E293E00E94101E81110AC0FA
:1021C00060E082EC92E00E94172B61EC71E08EE6F9
:1021D00093E0F7DD80912903833019F4A80163E0CF
:1021E00004C0843039F4A80164E08EEA92E00E94D1
:1021F000CC1E3EC0853009F03BC0A80165E08EEAE8
:1022000092E00E94CC1E60E084EE92E013DC60E07D
:1022100082EC92E00E94172B60E070E08CEB92E081
:10222000BEDB60EC71E08EE693E0CBDD6CE971E043
:102230008EE693E0C6DD65E871E08EE693E0C1DDF1
:102240006BE671E08EE693E0BCDD61E571E08EE661
:1022500093E0B7DD6DE271E08EE693E0B2DD08C099
:102260005A89552309F491C0BA89B53009F48DC053
:10227000CC24C3948091E302833008F4C12C0091F4
:102280002C0210912D0220912E0230912F024091AC
:102290003002509131026091320270913302E0902D
:1022A000E50289E992E041D780919902811104C049
:1022B00080919B02882391F184EE92E0CADB8CEB43
:1022C00092E09FDB2A89273049F189E293E00E945E
:1022D000291D809199028823B1F020E030E040E28E
:1022E00051E46091300270913102809132029091FC
:1022F00033020E9425350E94FE33AB0160E18EEA75
:1023000092E00E94CC1E80919B02882339F040E02D
:1023100050E062E18EEA92E00E94CC1E80919D0224
:10232000882399F18091280290912902A0912A0294
:10233000B0912B02A3019201281B390B4A0B5B0BB6
:10234000DA01C901813E9349A440B105F0F020E0D3
:1023500030E040E251E460912C0270912D028091B6
:102360002E0290912F020E9425350E94FE33AB0170
:1023700064E18EEA92E00E94CC1E409228025092C4
:10238000290260922A0270922B0289E992E00E944F
:10239000511A82E492E00E945522882319F04A895A
:1023A0004111B4C08091360290913702A091380259
:1023B000B0913902A3019201281B390B4A0B5B0B28
:1023C000DA01C901803C9742A940B10508F4A3C0D5
:1023D000409236025092370260923802709239026F
:1023E0004981433020F05A89563009F094C089E27F
:1023F00093E00E94C31D20E030E040E251E40E94DF
:1024000025350E94FE3369837A838B839C8389E21E
:1024100093E00E94911D20E030E040E251E40E94F0
:1024200025350E94FE336D837E838F83988740908D
:10243000EF025090F0026090F1027090F202C090B2
:10244000EB02D090EC02E090ED02F090EE02809072
:10245000E7029090E802A090E902B090EA02809131
:10246000C80289878FEA92E011D91C018FEA92E0B5
:1024700007D98B019C019A89963019F440912A035F
:1024800001C04A89AA81AF93B981BF935E815F93EE
:102490008D818F937F926F925F924F92FF92EF9216
:1024A000DF92CF92C984710160912B038EEA92E092
:1024B0000E949B200FB6F894DEBF0FBECDBF2BC08D
:1024C00089E293E00E94911D209130023091310207
:1024D00040913202509133020E9428336B017C01FB
:1024E00089E293E00E94C31D20912C0230912D02BD
:1024F00040912E0250912F020E9428338B019C01A3
:10250000B701A6018CEB92E04AD90ACE82E492E0B0
:102510000E94802247CF6296E2E10C940D3389E25B
:1025200093E00E94761C87EE92E0C9D184EE92E09F
:1025300078DA8BED92E018DB82EC92E00E94662A5A
:102540008CEB92E010D98FEA92E00E94910A8EEA19
:1025500092E00E94B61E89E992E0C6D582E492E03C
:102560000C94DA21A8E5B0E0E8EBF2E10C94F73244
:1025700082E492E00E94FF2160ED77E080E090E04D
:102580000E94482E82E492E00E94072284EE92E0AC
:102590004DDA8BED92E0F3DA82EC92E00E94862A2B
:1025A0008CEB92E0EDD889E992E0B5D5C12CD12C25
:1025B00080E8E82E8FE3F82E0DEC1CEC2CE43EE3D3
:1025C00040E050E060E870E487EE92E0AFD24FEF79
:1025D00050E060E070E087EE92E0C0D189E992E0DF
:1025E0009F938F939EEA892E92E0992E2FEAA22E36
:1025F00022E0B22E3CEBC32E32E0D32E42ECE42E8E
:1026000042E0F42E0BED12E024EE32E047EE52E011
:1026100069E273E082E492E00E942D22BE01675DD0
:102620007F4FC4010E944B210F900F90882309F423
:10263000ECC048A959A968E0C4010E94CC1E6BE90E
:1026400073E08EE693E0BDDB61E873E08EE693E035
:10265000B8DB68E573E08EE693E0B3DB6CE473E02F
:102660008EE693E00E94422C8AA5A8D7FC01019037
:102670000020E9F73197AF01481B590BBC018EE6EA
:1026800093E00E9420318EE693E00E94762C62E473
:1026900073E08EE693E00E94422CCE0101960E94E8
:1026A000761C8BA5833039F0843041F0823049F4B8
:1026B00067E373E008C06EE273E005C065E273E0B3
:1026C00002C06EE173E08EE693E07BDB66E173E0CF
:1026D0008EE693E00E94422C48A959A960E070E080
:1026E00020E08EE693E00E948E2C61E173E08EE69E
:1026F00093E00E94422C6AA5CE018C5B9F4F30D79D
:1027000061966FAD61978EE693E06DDB6CA57DA55C
:102710008EA59FA520E13EE040E050E00E94A73258
:1027200069017A0165E073E08EE693E00E94422C35
:1027300020E0B701A6018EE693E00E948E2C6EEF9A
:1027400072E08EE693E03DDB6DEF72E08EE693E0A3
:1027500038DB65ED72E08EE693E033DB66EB72E02A
:102760008EE693E02EDB6DE872E08EE693E029DBE7
:102770008EE693E00E94762CCBACDCACEDACFEACEC
:102780000FA918AD29AD3AAD4BA95CA96DA97EA9D9
:1027900087EE92E0C9D021966EAD7FAD219780E0A3
:1027A00090E00E942A3420E030E040E251E40E94B0
:1027B00091336093F3027093F4028093F502909347
:1027C000F6026AA589E293E00E94471D8BA58093DB
:1027D0002A034CA55DA56EA57FA58FEA92E00E9415
:1027E000BB0A8FEA92E00E94340B6091400382ECB6
:1027F00092E00E949A2A8BA582508330D8F46FEF22
:102800007FEF8CEB92E0CBD815C040E050E061E068
:102810008EEA92E00E94CC1E6DE572E08EE693E0B7
:10282000D0DA6CE172E08EE693E0CBDA8EE693E0EC
:102830000E94762C0FB6F894809163039091640304
:10284000A0916503B09166030FBE80933E02909302
:102850003F02A0934002B09341020FB6F8948091DA
:10286000630390916403A0916503B09166030FBE6A
:1028700080933A0290933B02A0933C02B0933D02B6
:102880000FB6F8948091630390916403A09165035F
:10289000B09166030FBE8093360290933702A093E7
:1028A0003802B0933902C85ADF4FECE00C9413336E
:1028B000462F50E060E070E020E00C948E2CFC018C
:1028C00080E090E0A0E8B0E480839183A283B383AA
:1028D0008DEC9CECACE4BEE384839583A683B78344
:1028E00080E090E0A0E8BFE380879187A287B3876C
:1028F00080E090E0A6E1B2E484879587A687B78759
:10290000108A118A128A138A148A158A168A178ADB
:10291000118E108E138E128E8FEF90E0958F848F14
:1029200081E0868F178E0895CF92DF92EF92FF920B
:102930000F931F93FC01408351836283738304834D
:10294000158326833783C086D186E286F3861F915E
:102950000F91FF90EF90DF90CF900895FC01738F5F
:10296000628F558F448F808D918D4817590714F4CD
:10297000518F408F808D918D8617970714F4718F3A
:10298000608F08954F925F926F927F928F929F9285
:10299000AF92BF92CF92DF92EF92FF92CF93DF93ED
:1029A000EC016A017B019A01AB016C857D858E8506
:1029B0009F850E9428332B013C012C813D814E8153
:1029C0005F810E942535288939894A895B890E945F
:1029D00029334B015C0120E030E048E453E40E94DD
:1029E000DC3418162CF0888A998AAA8ABB8A08C017
:1029F00080E090E0A8E4B3E4888B998BAA8BBB8B32
:102A000020E030E048E453EC688979898A899B8921
:102A10000E948D3387FF08C080E090E0A8E4B3EC0B
:102A2000888B998BAA8BBB8B8E8D81110BC02C89C7
:102A30003D894E895F89C701B6010E9428334B0149
:102A40005C0103C0812C912C54011E8ECC8ADD8A3E
:102A5000EE8AFF8A288139814A815B81C301B201F4
:102A60000E942535288939894A895B890E94293342
:102A70006B017C01288539854A855B85C501B401D8
:102A80000E9425359B01AC01C701B6010E94283385
:102A90006B017C016C8D7D8D072E000C880B990BD2
:102AA0000E942C344B015C019B01AC01C701B601B3
:102AB0000E94DC34181614F4750164016A8D7B8D54
:102AC000072E000C880B990B0E942C344B015C01E3
:102AD0009B01AC01C701B6010E948D3387FF02C084
:102AE00075016401C701B6010E94F933798F688FBF
:102AF000CB01DF91CF91FF90EF90DF90CF90BF900F
:102B0000AF909F908F907F906F905F904F900895BF
:102B1000FC01108A118A128A138A148A158A168A6D
:102B2000178A118E108E81E0868F0895CF92DF92E2
:102B3000EF92FF920F931F93FC01408351836283B6
:102B400073830483158326833783C086D186E28608
:102B5000F386DEDF1F910F91FF90EF90DF90CF9013
:102B60000895CF92DF92EF92FF92CF93DF93EC0123
:102B70006A017B0181E08F8F48A359A36AA37BA3DD
:102B800040E050E060E07FE34CA35DA36EA37FA331
:102B90002C8D3D8D39A728A78AA71BA688E08CA776
:102BA0000FB6F8948091630390916403A09165033C
:102BB000B09166030FBE8DA79EA7AFA7B8AB19AAA9
:102BC0001AAA1BAA1CAA80E090ECA9E7B4E48DAB7A
:102BD0009EABAFABB8AF19AE1AAE1BAE1CAEFE01CA
:102BE000FD961082118212821382349610826CEE4E
:102BF00074E08EE693E0E5D866ED74E08EE693E04F
:102C00000E94422C21E0B701A6018EE693E00E94CB
:102C1000F42C6AEC74E08EE693E00E94422C6CA5E2
:102C20008EE693E045DE8EE693E00E94762C68EA1D
:102C300074E08EE693E0C5D8DF91CF91FF90EF90DE
:102C4000DF90CF900895AAE0B0E0E9E2F6E10C94BD
:102C5000F232DC015F963C90332009F479C06A01BE
:102C60007B019A8789879A01AB01FC0161A972A94E
:102C700083A994A90E948D3387FF08C0A985BA85CE
:102C8000D196CD92DD92ED92FC92D497E985FA85AA
:102C900025A936A947A950ADC701B6010E948D33B9
:102CA00087FF08C0A985BA85D596CD92DD92ED92B1
:102CB000FC92D897E985FA8512A5112399F024A1F1
:102CC00035A146A157A160A171A182A193A10E9443
:102CD00029339B01AC01C701B6010E94DC341816F0
:102CE000CCF036C0A985BA8594962D913D914D9131
:102CF0005C91979790966D917D918D919C91939712
:102D00000E9428339B01AC01C701B6010E948D339C
:102D100087FF1EC00FB6F894C0906303D090640381
:102D2000E0906503F09066030FBEE985FA8585A4FF
:102D300096A4A7A4B0A8C5A6D6A6E7A6F0AA112374
:102D400049F0E985FA85828D938D91A780A712A617
:102D5000312CC5C1A985BA855C968D919C915D97F2
:102D600099969C938E93989781E09A968C939A97D4
:102D70009B968C919B978D010F5B1F4F882309F4C5
:102D800098C0D5962D913D914D915C91D897D19653
:102D90006D917D918D919C91D4970E94283320E074
:102DA00030E040E05FE30E9425352B013C01E985DE
:102DB000FA85FD96FA83E9839B01AC0160817181FC
:102DC000828193810E942933A981BA816D937D9379
:102DD0008D939C931397C701B601681979098A09E5
:102DE0009B090E942A349B01AC010E9429339B015C
:102DF000AC01E985FA8561AD72AD83AD94AD0E94F9
:102E00002933A985BA85D9966D937D938D939C932B
:102E1000DC97F80180818F5F808366E974E08EE63D
:102E200093E00E94422CD8016C918EE693E040DD45
:102E300064E974E08EE693E00E94422CE985FA850D
:102E400064A58EE693E034DD66E874E08EE693E0F8
:102E50000E94422C22E0B301A2018EE693E00E9480
:102E6000F42C6DE774E08EE693E00E94422CA98575
:102E7000BA85D1964D915D916D917C91D49721E069
:102E80008EE693E00E94F42C65E774E08EE693E012
:102E90000E94422CE985FA8545A956A967A970AD1B
:102EA00021E08EE693E00E94F42C8EE693E00E94EF
:102EB000762CA985BA859B968C919B978F5F9B9664
:102EC0008C939B97FD0111AA12AA13AA14AA80E061
:102ED00090ECA9E7B4E485AB96ABA7ABB0AFD80153
:102EE0006C9184A5681708F433CF70E080E090E01F
:102EF0000E942A346B017C019B01AC01E985FA85B3
:102F000061AD72AD83AD94AD0E94913320E030E0AD
:102F10004AE754E40E9491334B015C01A985BA85CC
:102F20005C966D917C915D975A968D919C915B9783
:102F3000681B790B072E000C880B990B0E942C3410
:102F400020E030E040E850E40E9425352B013C01B0
:102F5000E985FA85FD96A7019601608171818281DC
:102F600093810E9491339B01AC010E94293320ED93
:102F70003FE049E450E40E9425359B01AC01C301C8
:102F8000B2010E9491336B017C012AE939E949E1E0
:102F90005FE30E9425352B013C012AE939E949E923
:102FA0005FE3C701B6010E942535A50194010E9487
:102FB000913369837A838B839C832AE939E949E9D0
:102FC0005DE3C701B6010E942535A50194010E9469
:102FD00025356D837E838F83988764E774E08EE662
:102FE00093E00E94E10E6AE474E08EE693E00E94B2
:102FF000E10E6BE374E08EE693E00E94422C23E046
:10300000B701A6018EE693E00E94F42C65E374E01C
:103010008EE693E00E94422C22E0B501A4018EE6E8
:1030200093E00E94F42C63E374E08EE693E00E9448
:10303000E10E6BE174E08EE693E00E94422C22E008
:10304000B301A2018EE693E00E94F42C65E174E0E6
:103050008EE693E00E94422C23E049815A816B81E5
:103060007C818EE693E00E94F42C6FE074E08EE6A3
:1030700093E00E94422C22E04D815E816F81788531
:103080008EE693E00E94F42C8EE693E00E94762C6C
:1030900064EC73E08EE693E00E94E10EE985FA8528
:1030A000408251826282738289819A81AB81BC8124
:1030B00084839583A683B7838D819E81AF81B885F4
:1030C00080879187A287B387CF0122DDA985BA8542
:1030D0005F961C925F9799961C921E929897832DEB
:1030E0002A96E1E10C940E33FC01108211821282C7
:1030F0001382148215821682178210861186128618
:1031000013861486158616861786108A118A128AE7
:10311000138A148A08953D9A099A4598E0E9F0E0E7
:1031200080818F7D8083119808954F925F926F9276
:103130007F928F929F92AF92BF92CF92EF920F9316
:103140001F93CF93DF93EC012A013B014801590102
:10315000EE2091F08A81811164C181E08A836FE160
:1031600076E08EE693E00E94E10E69EF75E08EE670
:1031700093E00E94E10E55C11A8220E030E040E267
:1031800052E4C301B2010E94DC34181644F5888170
:10319000811149C181E0888363EE75E08EE693E09A
:1031A0000E94422C21E0B301A2018EE693E00E942E
:1031B000F42C6EED75E08EE693E00E94422C21E047
:1031C00040E050E060E272E48EE693E00E94F42C6E
:1031D00068ED75E08EE693E00E94E10E24C110E0F8
:1031E0001882E1105EC020E030E04CE052E4C30100
:1031F000B2010E948D3387FF54C020E030E0A90166
:10320000C301B2010E94DC3418160CF04AC08A8552
:10321000811112C081E08A870FB6F8948091630310
:1032200090916403A0916503B09166030FBE8E83F5
:103230009F83A887B98739C00FB6F894809163033C
:1032400090916403A0916503B09166030FBE4E8117
:103250005F8168857985841B950BA60BB70B813C34
:103260009742A940B10508F1898181111DC081E013
:1032700089836FEB75E08EE693E00E94422C21E09B
:10328000B301A2018EE693E00E94F42C6DEA75E092
:103290008EE693E00E94422C8EE693E00E94762C0C
:1032A00003C01A86198201C011E0C11023C020E0BA
:1032B00030E040EA52E4C501B4010E94DC34181643
:1032C000CCF48B8181111AC081E08B8361E975E0B8
:1032D0008EE693E00E94422C21E0B501A4018EE627
:1032E00093E00E94F42C6BE875E08EE693E00E9478
:1032F000E10E04C01B82C11016C001C011E020E025
:1033000030E040EF51E4C501B4010E948D3387FFE6
:10331000A7C020E030E0A901C501B4010E94DC345F
:1033200018160CF484C01C82CC20A9F10FB6F894B6
:103330008091630390916403A0916503B09166034B
:103340000FBE40915103509152036091530370910D
:103350005403841B950BA60BB70B81339547A1052E
:10336000B105C8F060E175E08EE693E00E94E10EE1
:103370000FB6F8948091630390916403A091650364
:10338000B09166030FBE8093510390935203A093B4
:103390005303B0935403112309F43EC08D8181116E
:1033A0003AC00FB6F8944091630350916403609162
:1033B0006503709166030FBE8881811103C08A8105
:1033C000882329F084EF91E024EF31E004C088ECF9
:1033D00090E028E037E0EF85E11101C0C9018B845E
:1033E0009C84AD84BE848A019B01081919092A09AD
:1033F0003B09A0E0B0E0081719072A073B0778F05F
:1034000081E08E278F87811110C011984B875C87D0
:103410006D877E8704C011E011981F8623C011E0DC
:1034200021C011E0DDCE11E0DECE119AEFCF8C810C
:103430008111B4CF81E08C8360E775E08EE693E084
:103440000E94422C21E0B501A4018EE693E00E9487
:10345000F42C63E575E08EE693E00E94E10E9ECFCA
:103460001C8299CF812FDF91CF911F910F91EF9007
:10347000CF90BF90AF909F908F907F906F905F9014
:103480004F90089521E0FC01258311980895FC01D7
:103490001082118212821382148215821286119870
:1034A0000895CF92DF92EF92FF920F931F93FC014A
:1034B0000FB6F894409163035091640360916503E3
:1034C000709166030FBE808181110FC081818111CF
:1034D0000CC08281811109C08381811106C0848161
:1034E000811103C088EE93E002C088EC90E000896F
:1034F0001189228933896A017B01C01AD10AE20A43
:10350000F30AA0E0B0E0C816D906EA06FB0698F078
:10351000948981E08927848B882359F0459A80918A
:1035200090008F7D80939000408B518B628B738BCA
:1035300002C04598F4CF1F910F91FF90EF90DF905C
:10354000CF900895DC01ED91FC910190F081E02D88
:1035500009950895AB0160E070E020E00C948E2C9A
:10356000A5E1B0E0E6EBFAE10C94FE328C016830A4
:1035700058F4673051F485E1E0E0F1E0D8010190C2
:103580000D928A95E1F715C060E085E1F82EF69E70
:10359000B00111246C52794F45E150E0CE01019603
:1035A0000E94E335FE013196D80101900D92FA9404
:1035B000E1F7C8016596E5E00C941A33A5E1B0E0A7
:1035C000E4EEFAE10C940133873019F460E071E025
:1035D00014C0883080F495E1899FB00111246C52A9
:1035E000794F45E150E0CE0101960E94E335BE01DE
:1035F0006F5F7F4F02C069E271E085E593E00E9452
:10360000113685E593E06596E2E00C941D33EF9268
:10361000FF921F93CF93DF93CDB7DEB765970FB6B9
:10362000F894DEBF0FBECDBF7C0110E0612FCE014C
:10363000019696DFBE016F5F7F4FC7010E94F5358F
:10364000892B11F4812F04C01F5F183079F788E0AF
:1036500065960FB6F894DEBF0FBECDBFDF91CF9158
:103660001F91FF90EF900895A5E1B0E0EAE3FBE140
:103670000C94FF32682F8E010F5F1F4FC80170DF5F
:103680006BE976E08EE693E00E94422CF80101900F
:103690000020E9F73197AF01401B510BB8018EE6CE
:1036A00093E00E94203168E976E08EE693E00E9484
:1036B000422C6D858EE693E0FBD861E976E08EE6DC
:1036C00093E00E94E10E68E876E08EE693E00E94C7
:1036D000422C8F8598890AE010E0B8010E9493324D
:1036E0008EE693E037DF6EE28EE693E02BDF8F8588
:1036F0009889B8010E949332BC018EE693E02ADFDC
:1037000069E776E08EE693E00E94422C69898EE6B6
:1037100093E0CED86DE28EE693E014DF6A898EE600
:1037200093E0C6D869E676E08EE693E00E94422CEC
:103730006D898EE693E0BCD88EE693E00E94762CED
:1037400069E576E08EE693E00E94422C6E858EE677
:1037500093E0AED86AE476E08EE693E00E94422CD5
:103760006B898EE693E0A4D86DE28EE693E0EADE04
:103770006C898EE693E09CD867E476E08EE693E071
:103780000E94E10E6596E4E00C941B338F929F92A9
:10379000AF92BF92CF92DF92EF92FF921F93CF939F
:1037A000DF93CDB7DEB765970FB6F894DEBF0FBED7
:1037B000CDBF61EC76E08EE693E00E94E10E812CB5
:1037C000912C54018394CE0101967C019AE0C92E7C
:1037D000D12C6FEF680DC701C3DE6EEB76E08EE68D
:1037E00093E00E94422CB501A4018EE693E00E9472
:1037F000E72C6BEB76E08EE693E00E94422CF7011B
:1038000001900020E9F73197AF014E195F09B70128
:103810008EE693E00E942031F70101900020E9F745
:1038200031971E2F1E191A3030F460E28EE693E0B5
:1038300089DE1F5FF8CF68EB76E08EE693E00E94AA
:10384000422C6D858EE693E033D860EB76E08EE611
:1038500093E00E94422C8F859889B6010E94933292
:103860008EE693E077DE6EE28EE693E06BDE8F8588
:103870009889B6010E949332BC018EE693E06ADE1D
:103880006CEA76E08EE693E00E94422C69898EE62F
:1038900093E00ED86DE28EE693E054DE6A898EE600
:1038A00093E006D867EA76E08EE693E00E94E10EA8
:1038B0009FEF891A990AA90AB90A89E08816910422
:1038C000A104B10409F085CF65960FB6F894DEBF68
:1038D0000FBECDBFDF91CF911F91FF90EF90DF9092
:1038E000CF90BF90AF909F908F900895A5E1B0E0EA
:1038F000ECE7FCE10C94FF328C01FC011082118298
:103900001282108E80E090E0A6E1B2E4818F928F67
:10391000A38FB48F158E8DE2868F87E3878F10A2D9
:1039200011A212A213A214A215A216A217A260E05D
:10393000CE01019615DE85E1FE013196D801139680
:1039400001900D928A95E1F76596E4E00C941B33A3
:10395000DC01EC91E93040F4F0E0EE0FFF1FE85796
:10396000FE4F80819181089588E391E00895FC01E4
:103970002081213051F422E0208360E878E08EE657
:1039800093E00E94E10E81E0089580E00895FC013B
:103990002081223051F423E0208366E478E08EE633
:1039A00093E00E94E10E81E0089580E00895FC011B
:1039B0002081233051F424E020836EE178E08EE60C
:1039C00093E00E94E10E81E0089580E00895FC01FB
:1039D0002081243051F425E0208368EF77E08EE6E3
:1039E00093E00E94E10E81E0089580E00895FC01DB
:1039F00020813EEF320F333058F4218386E08083FC
:103A000066EE77E08EE693E00E94E10E81E0089595
:103A100080E00895FC0180818183108260EB77E073
:103A20008EE693E00E94E10E81E00895FC01208182
:103A3000211104C028E0208381E0089580E00895EA
:103A4000FC012081283019F4108281E0089580E083
:103A50000895FC018081818387E0808364E977E0B9
:103A60008EE693E00E94E10E81E00895FC01108251
:103A7000118210A211A212A213A2108E158E6CE751
:103A800077E08EE693E00E94E10E81E00895A5E1E3
:103A9000B0E0EDE4FDE10C94FF328C01FC016283A7
:103AA000CE0101965DDD85E1FE013196D8011396C8
:103AB00001900D928A95E1F76596E4E00C941B3332
:103AC000CF93DF93FC012081211119C0EC01DFDFCE
:103AD00081E0888318A219A21AA21BA20FB6F8943B
:103AE0008091630390916403A0916503B091660394
:103AF0000FBE8CA39DA3AEA3BFA381E001C080E055
:103B0000DF91CF91089521E0FC01208F418F528FEA
:103B1000638F748F0895FC0181E0858F668F478FD6
:103B20000895FC01208D222329F0618D728D838DF3
:103B3000948D0895FC016189728980E090E00E9473
:103B40002A3420E030E040E251E40C949133FC014F
:103B5000858D882311F0868D089580818350823071
:103B600010F48589089583890895FC01858D882343
:103B700011F0878D089580818350823010F48689FA
:103B8000089584890895A0E0B0E0E9ECFDE10C948B
:103B9000FB328C01DCDFD82FC801E7DFC82F6D2F87
:103BA00070E080E090E00E942A346B017C016C2F71
:103BB00070E080E090E00E942A349B01AC01C701D4
:103BC000B6010E94293320E030E040E05FE30E942C
:103BD0002535CDB7DEB7E8E00C941733FC01208122
:103BE000223031F4208930E062177307B8F0CFCE6D
:103BF000233049F4FC01278530E021503109621758
:103C0000730760F0D4CE243049F4FC01278530E0FE
:103C10002E5F3F4F6217730708F0D9CE80E00895FA
:103C2000FC0181E09081923009F080E00895FC0170
:103C300090818FEF890F843038F081E0963031F039
:103C4000983021F080E0089581E008950895A0E083
:103C5000B0E0EDE2FEE10C94F332DC01EC91E130F6
:103C600009F043C0CB01BA01ED010FB6F894C09042
:103C70006303D0906403E0906503F09066030FBE89
:103C80008CA09DA0AEA0BFA0CCA2DDA2EEA2FFA200
:103C9000A90198010E9428332B013C0120E030E06B
:103CA00040E05FEB0E948D3387FD0AC020E030E0EA
:103CB00040E05FE3C301B2010E94DC3418162CF42B
:103CC00018A219A21AA21BA210C088A199A1AAA188
:103CD000BBA188199909AA09BB09C80ED91EEA1EF9
:103CE000FB1EC8A2D9A2EAA2FBA2CDB7DEB7E0E1D3
:103CF0000C940F33CF93DF93FC0120812630F1F435
:103D0000EC01818180836FEC77E08EE693E00E9486
:103D1000422CCE011DDEFC0101900020E9F7319715
:103D2000AF01481B590BBC018EE693E00E94203185
:103D30008EE693E00E94762C81E001C080E0DF9166
:103D4000CF9108951F93CF93DF93EC01162F0E941C
:103D50008F3A181721F0612FCE010E94973ADF9118
:103D6000CF911F9108950C948F3A08950895CF93A1
:103D7000DF93C0E0D0E06FEFCE01E4DF2196C11504
:103D800081E0D807C1F769E579E08EE693E00E940B
:103D9000E10EDF91CF9108950F931F93CF93DF939F
:103DA0008A01C0916103D0E0609683E0CC0FDD1FF3
:103DB0008A95E1F7CE01C6DF612F7727CE01019604
:103DC000C1DF602FCE010296BDDF60E0CE01039619
:103DD000B9DF60E0CE010496B5DF60E0CE01059664
:103DE000B1DF60E0CE010696ADDF60E0CE01079660
:103DF000A9DF8091610390E001968F7099278093ED
:103E00006103DF91CF911F910F9108958F929F923F
:103E1000AF92BF92EF92FF920F931F93CF936EE4F6
:103E200079E08EE693E00E94E10E812C912C540102
:103E300020E8E22EF12CC70196DFC82F8F3F09F44E
:103E400084C0C70101968FDF082FC70102968BDF60
:103E5000402F50E0542F44278A01082B6AE479E070
:103E60008EE693E00E94422C20E0B501A4018EE68C
:103E700093E00E948E2C67E479E08EE693E00E9446
:103E8000422CC830A9F188F4C43049F140F4C23062
:103E900001F110F5C130F1F562E479E03DC0C630C2
:103EA00009F118F565E279E037C0C33151F140F40A
:103EB000C13109F118F5C03169F56FEF78E02CC018
:103EC000C03211F1C03319F1C43121F563ED78E04E
:103ED00023C06CE379E020C063E379E01DC06AE2AF
:103EE00079E01AC06FE179E017C068E179E014C0A9
:103EF00069E079E011C064EF78E00EC068EE78E028
:103F00000BC06DED78E008C065EC78E005C06BEBA8
:103F100078E002C063EB78E08EE693E00E94422CEA
:103F20000115110571F06CEA78E08EE693E00E94CD
:103F3000422CA80160E070E020E08EE693E00E9451
:103F40008E2C8EE693E00E94762C88E0E80EF11C21
:103F50008FEF881A980AA80AB80AE11481E0F806D7
:103F600009F069CFCF911F910F91FF90EF90BF9013
:103F7000AF909F908F900895DB019C9111968C914A
:103F80001197982712968C911297982713964D9116
:103F90005D916D917C9116979427952717968C913A
:103FA0001797982719962C9119979227FD013A9601
:103FB0009D01225F3F4F81919827E217F307D9F7C0
:103FC0009D012E5E3F4F81919827E217F307D9F7A5
:103FD0009D012A5E3F4F819198272E173F07D9F701
:103FE00056962C91569758968C918227892708953A
:103FF000A4E0B0E0EEEFFFE10C94FB326B0129830B
:104000003A834B835C83CE0101967C0100E010E093
:10401000F70161917F01C8018C0D9D1D93DE0F5F3B
:104020001F4F04301105A1F72496E8E00C941733D4
:10403000A4E0B0E0EEE1F0E20C94FB326E0185E02A
:10404000C80ED11C8E010F5F1F4F7B01E01AF10AD1
:10405000C701800F911F87DEF80181938F01EC1556
:10406000FD05B1F769817A818B819C812496E8E016
:104070000C941733CF92DF92EF92FF92CF93DF939E
:10408000EB0169017A01622FCE015CDE99278F2D49
:104090007E2D6D2DCE01019655DEB701882799271B
:1040A000CE0102964FDE6F2D772788279927CE0104
:1040B000039648DEDF91CF91FF90EF90DF90CF9095
:1040C0000895A0E0B0E0E7E6F0E20C94FB32EB01EB
:1040D000CB0149DE182FCE01019645DE082FCE0117
:1040E000029641DEC82ED12CE12CF12C7601DD2484
:1040F000CC24D02AC12ACE01039635DEA701960131
:10410000582BCA01B901CDB7DEB7E8E00C941733DC
:104110000F931F93CF93DF938B01EA01642FC801A4
:1041200011DE6D2F7727C80101960CDEDF91CF914C
:104130001F910F9108956F927F928F929F92AF92ED
:10414000BF92CF92EF92FF920F931F93CF93DF9383
:10415000CDB7DEB76B970FB6F894DEBF0FBECDBFFD
:104160003C0185EA89836A834B830C831D832E83FC
:104170003F83F986E886CA868B869C86AD86BE8696
:104180008BA59CA5ADA5BEA58F87988BA98BBA8B57
:104190008FA598A9A9A9BAA98B8B9C8BAD8BBE8B37
:1041A0008BA99CA9988F8F8B8DA99EA99A8F898F97
:1041B000BE016F5F7F4FC301DFDE8B8F65EA80E05A
:1041C00090E0C0DD6A8181E090E0BCDD6B8182E03F
:1041D00090E0B8DD2C813D814E815F8167E070E029
:1041E000C30148DF488559856BE070E0C30190DF6B
:1041F0006A858DE090E0A6DD2B853C854D855E854A
:104200006EE070E0C301F4DE2F85388949895A8950
:1042100062E170E0C301ECDE2B893C894D895E8947
:1042200066E170E0C301E4DE4F89588D6AE170E019
:10423000C3016EDF498D5A8D6CE170E0C30168DF08
:104240006B8D8EE190E07EDD6B960FB6F894DEBF4D
:104250000FBECDBFDF91CF911F910F91FF90EF90D7
:10426000CF90BF90AF909F908F907F906F90089568
:104270000F931F93CF938B01CB0175DDC82FC8011E
:10428000019671DD2C2F30E0A901582BCA01CF9186
:104290001F910F910895A0E0B0E0E1E5F1E20C94E8
:1042A000FB328C01EB0180E090E05DDD8883853A94
:1042B00009F056C081E090E056DDD82E898382E077
:1042C00090E051DD8A8367E070E0C801FADE6B831D
:1042D0007C838D839E836BE070E0C801C9DF988783
:1042E0008F838DE090E03FDD89876EE070E0C8014C
:1042F0009FDE6A877B878C879D8762E170E0C801BB
:1043000097DE6E877F87888B998B66E170E0C801A6
:104310008FDE6A8B7B8B8C8B9D8B6AE170E0C80192
:10432000A7DF7C019F8B8E8B6CE170E0C801A0DF62
:10433000998F888F8EE190E016DDC82E8A8FBE019E
:10434000C8011ADEC8120CC087E08D1548F09CE247
:10435000E91A91E0F90A81E097E9E916F10408F019
:1043600080E0CDB7DEB7E8E00C941733FB01019095
:104370000020E9F73197AF01461B570BDC01ED91A7
:10438000FC910280F381E02D099508950C94F42CA2
:1043900008950F931F93CF93DF93EC01E7DF8C0118
:1043A000CE010E94762C800F911FDF91CF911F913B
:1043B0000F910895FC01E05CFF4F1082319610824E
:1043C00011821282138234961182108232961182E7
:1043D00010823296118210823296118210823296A9
:1043E00011821082329611821082329611821082CE
:1043F000329611821082329611821082089540E026
:1044000052EC61E070E08EE693E00C9416328EE69A
:1044100093E00E94762C6FE773E18EE693E00E94B2
:10442000E10E64E573E18EE693E00E94E10E64E341
:1044300073E18EE693E00E94E10E60E073E18EE6A8
:1044400093E00E94E10E64EE72E18EE693E00E943A
:10445000E10E8EE693E00C94762CA0E0B0E0E3E36E
:10446000F2E20C94F732FC01EB5BFF4F7183608347
:104470003296518340833296318320833296118362
:1044800000833296F182E0823296D182C0823296E7
:10449000B182A08232969182808232962F853889AD
:1044A00031832083ECE00C9413330F931F930FB6EA
:1044B000F894409163035091640360916503709197
:1044C00066030FBEFC01EF5BFF4F80819181A281EB
:1044D000B3818A019B01081B190B2A0B3B0BD901E5
:1044E000C80180369A4EA105B10530F04083518352
:1044F0006283738381E001C080E01F910F91089572
:10450000A0E0B0E0E6E8F2E20C94F1321C01EC012C
:10451000CB5BDF4F88819981892B09F4C5C071017C
:1045200029E4E20EF11CD7018D919C91009709F4CA
:10453000BBC06101BBE4CB0ED11CF60120813181EF
:10454000232B09F4B1C081010F5A1F4FD8012D91BF
:104550003C91232B09F4A8C00E947A0D4B015C0109
:10456000D601ED91FC914080518062807380E8819A
:10457000F9818081811121C06AED72E18EE693E0BC
:104580000E94422C21E030E0B501A4018EE693E0C8
:10459000FDDE65ED72E18EE693E00E94422C20E0A4
:1045A00030E0B301A2018EE693E0F0DE63ED72E14C
:1045B0008EE693E00E94E10E77C06DEC72E18EE62C
:1045C00093E00E94422CF801808191810E94460B69
:1045D0000A9728F460E38EE693E00E94A21AD801BD
:1045E0008D919C910E94460BBC018EE693E00E9447
:1045F000AA1A6FE28EE693E00E94A21AE881F9817E
:1046000067858EE693E00E94581468EC72E18EE6AE
:1046100093E00E94422C21E030E0B501A4018EE637
:1046200093E0B4DE63EC72E18EE693E00E94422CEC
:1046300020E030E0B301A2018EE693E0A7DE6CEB50
:1046400072E18EE693E00E94422CD701ED91FC913D
:104650008081B4E68B9FC00111246FEF70E00E944F
:1046600093328EE693E00E94AA1A65EB72E18EE621
:1046700093E00E94422CF101E15BFF4F8081918128
:104680000E94F50C682F8EE693E00E9458146CEAA5
:1046900072E18EE693E00E94422C8881998158D97C
:1046A000BC018EE693E075DECDB7DEB7E2E10C9497
:1046B0000D3365E772E18EE693E00E94E10E6BE652
:1046C00072E18EE693E00E94E10E65E372E18EE610
:1046D00093E00E94E10E68EF71E18EE693E00E94A4
:1046E000E10E6AEC71E18EE693E00E94E10E64EA6D
:1046F00071E18EE693E00E94E10E6CE771E18EE6D7
:1047000093E00E94E10E64E571E18EE693E00E9481
:10471000E10E6AE171E18EE693E00E94E10E6EEE39
:1047200070E18EE693E00E94E10E69EB70E18EE6A7
:1047300093E00E94E10E63E870E18EE693E00E9450
:10474000E10E6AE570E18EE693E00E94E10E61E31E
:1047500070E18EE693E00E94E10E6EEF7FE08EE660
:1047600093E00E94E10E6BEC7FE08EE693E00E9406
:10477000E10E65EA7FE08EE693E00E94E10E69E7D4
:104780007FE08EE693E00E94E10E65E47FE08EE636
:1047900093E00E94E10E6FE17FE08EE693E00E94DD
:1047A000E10E8EE693E00C94762CEF92FF920F933D
:1047B0001F93CF937B01DB012D91BD012032D1F3FB
:1047C000211103C062E07FE01EC08C010B5B1F4F14
:1047D000D801ED91FC918081882319F06EEB7EE089
:1047E00012C0C7010E94071BC82F883088F06CEAEE
:1047F0007EE08EE693E00E94422CB7018EE693E0C5
:10480000C8DD62E87EE08EE693E00E94E10E15C00E
:10481000682FF801808191813AD96FE67EE08EE6BB
:1048200093E00E94422C8C2F0E94DE1ABC018EE67F
:1048300093E0AFDD8C2F0E94341BCF911F910F911D
:10484000FF90EF900895A5E1B0E0E9E2F4E20C9466
:10485000FB328C016C0185E4C80ED11CD601ED91B0
:10486000FC918081882319F06BE37EE070C0F280B8
:104870006F2DCE0101960E94B01AED84E11003C0A5
:104880006EEF7DE064C06F2DF6018081918118D9B3
:10489000F801EF5AFF4F808191810E94A00AF80130
:1048A000E35BFF4F6D898081918144D6D6018D9164
:1048B0009C9137D9F801E95BFF4F0190F081E02D21
:1048C00064877587868797874F2D50E0F801ED5AEA
:1048D000FF4F62E0808191815FDA64ED7DE08EE6DA
:1048E00093E00E94E10E68EC7DE08EE693E0CAD78B
:1048F000F6018081918115D9AB01BC0121E030E046
:104900008EE693E043DD6AEB7DE08EE693E0BAD776
:104910008F2D0E94DE1ABC018EE693E027DD67EB47
:104920007DE08EE693E0AED76E2D8EE693E00E949A
:10493000581460EB7DE08EE693E00E94E10E6AE998
:104940007DE08EE693E00E94E10E65E67DE08EE676
:1049500093E00E94E10E6596E8E00C941733CF9344
:10496000DF93EC01FC01EB5BFF4F8081918152D81A
:10497000FE01E75BFF4F808191810E94290DFE01BE
:10498000E35BFF4F60E08081918151D6FE01E15BE6
:10499000FF4F60E070E0808191810E94CF0CFE01AA
:1049A000EF5AFF4F808191810E94AB0BCD5ADF4FB0
:1049B00040E050E060E388819981EED968E37DE0D2
:1049C0008EE693E00E94E10E63E17DE08EE693E0E7
:1049D0000E94E10EDF91CF9108950F931F93CF9323
:1049E000DF93EC018C010B5B1F4FF80180819181FB
:1049F000FC012081222319F06AED7CE015C016D855
:104A0000F801808191818DD8AB01BC01C95BDF4F7A
:104A1000888199810E94B11563EA7CE08EE693E07B
:104A20000E94E10E69E87CE08EE693E00E94E10ED0
:104A3000DF91CF911F910F910895CF93DF93EC01F8
:104A4000FC01EB5BFF4F808191810E94F71C882362
:104A5000C9F0FE01EF5AFF4F808191810E94340B13
:104A6000FE01E35BFF4F60E080819181E0D5CD5A8C
:104A7000DF4F40E050E066E0888199818DD968E59C
:104A80007CE002C069E37CE08EE693E00E94E10EE8
:104A9000DF91CF9108950F931F93CF93DF93EC0194
:104AA0008C010B5B1F4FF80180819181FC012081FB
:104AB000263049F51FD9FE01EF5AFF4F80819181C1
:104AC0000E94D60AF80180819181AAD8882339F002
:104AD00061E0FE01E35BFF4F80819181A8D5FE017B
:104AE000E15BFF4F6FEF7FEF808191810E94CF0CE0
:104AF000CD5ADF4F40E050E067E0888199814CD982
:104B00006DE27CE002C06AE17CE08EE693E00E9408
:104B1000E10EDF91CF911F910F910895A4E1B0E0D4
:104B2000E4E9F5E20C94F3327C0125E4E20EF11C99
:104B3000D7012D913C91232B09F495C18C015C0187
:104B4000B9E4AB0EB11CF501808191810E947A0D10
:104B50002B013C0166EF7BE08EE693E00E94E10EC4
:104B60006CEE7BE08EE693E08DD6D7018D919C9123
:104B70000E94A81CBC018EE693E0F8DBD701ED9102
:104B8000FC918081877FF801EF5AFF4F6F018111FF
:104B900046C18EE693E0AAD665ED7BE08EE693E013
:104BA00071D620E030E041E654ECC301B2010E942E
:104BB000DC34181644F421E030E0B301A2018EE6A3
:104BC00093E0E4DB05C060ED7BE08EE693E05AD62F
:104BD00064EC7BE08EE693E055D6D7018D919C91F5
:104BE0000E94911DAB01BC0121E030E08EE693E014
:104BF000CDDB61EC7BE08EE693E00E94E10E67EB9B
:104C00007BE08EE693E03ED6F801E55BFF4F019036
:104C1000F081E02D408151816281738120E030E09C
:104C20008EE693E0B3DB6BEA7BE08EE693E02AD678
:104C3000F701808191810E94A71D682F8EE693E085
:104C40000E9458146DE28EE693E00E94A21AD701EA
:104C50008D919C910E94B51D682F8EE693E00E9475
:104C6000581468EA7BE08EE693E00E94E10E6DE95D
:104C70007BE08EE693E006D6D501ED91FC91808134
:104C8000B4E68B9FC00111246FEF70E00E94933255
:104C90008EE693E00E94AA1A6FE87BE08EE693E02E
:104CA000F1D5F801E15BFF4F808191810E94F50C05
:104CB000682F8EE693E00E94581469E87BE08EE648
:104CC00093E00E94E10EF701808191810E94101E05
:104CD000882309F43BC061E77BE08EE693E0D2D500
:104CE000D6018D919C910E94540BAB01BC01F8013F
:104CF000E35BFF4F80819181A8D420E13EE040E05A
:104D000050E00E94A73249015A012B013C0120E0EA
:104D1000B501A4018EE693E001D66EE67BE08EE657
:104D200093E0B0D5C301B2012CE330E040E050E0A5
:104D30000E94A732BA01A90120E08EE693E0EED5E9
:104D40006CE67BE08EE693E00E94E10E44E1BE015A
:104D50006F5F7F4FF601808191810E945F0B61E65A
:104D60007BE08EE693E08ED5BE016F5F7F4F8EE6CF
:104D700093E00FDB66E57BE08EE693E083D5780178
:104D8000F7E4EF0EF11CD701ED91FC9140815181C8
:104D90006281738122E030E08EE693E0F7DA61E52C
:104DA0007BE08EE693E06ED5D701ED91FC914481D6
:104DB00055816681778123E030E08EE693E0E6DA84
:104DC0006CE47BE08EE693E05DD5D701ED91FC913C
:104DD000408551856285738522E08EE693E004D696
:104DE0008EE693E083D5F801EB5AFF4F0190F081F6
:104DF000E02D8081811130C0818181112DC082819F
:104E000081112AC08381811127C08481811124C02E
:104E100060E17BE08EE693E00E94E10E24C064EE48
:104E20007BE08EE693E02ED5F601808191810E9491
:104E3000460BBC018EE693E00E94AA1A6FED7BE060
:104E40008EE693E01FD5D701ED91FC9167858EE644
:104E500093E00E9458149DCE64E37BE08EE693E0DD
:104E60000E94E10ED5CF6496E0E10C940F33A4E0EC
:104E7000B0E0EDE3F7E20C94F3328C017A836983BE
:104E80006F5F7F4FE981FA8180818032B9F345E01D
:104E900050E06AE971E0CF010E941836892B09F0D1
:104EA0003EC089819A8105960E94BB354B015C0109
:104EB00020E030E040EF51E40E948D3387FD0AC0CE
:104EC00020E030E048E252E4C501B4010E94DC3445
:104ED00018161CF464EF7AE06CC1F801EB5BFF4F2D
:104EE000B501A401808191810E94831DF801E95BD5
:104EF000FF4F0190F081E02D84869586A686B786C7
:104F00006AED7AE08EE693E0BDD421E030E0B501B1
:104F1000A4018EE693E03ADA68ED7AE04AC148E00F
:104F200050E060EA71E089819A810E941836892BED
:104F300009F04FC029813A81285F3F4F3A83298386
:104F4000C9010E94BE357C01B82E89819A81FC017D
:104F50002191222379F0203219F0FA83E983F5CFE9
:104F600089819A81FC013196FA83E983FC012081D1
:104F70002032B1F30E94BE359A8389838981F3E19F
:104F8000FB1520F48B3510F48B1518F469EB7AE0DF
:104F900010C1F801EB5BFF4F49816E2D808191813B
:104FA0000E948B1D64EA7AE08EE693E06BD46E2D4E
:104FB0008EE693E00E9458146DE28EE693E00E9424
:104FC000A21A69818EE693E00E94581462EA7AE0A0
:104FD000F0C044E050E06AEA71E089819A810E9461
:104FE0001836892B09F072C029813A812C5F3F4F16
:104FF0003A832983C9010E94BB352B013C01E9801A
:10500000FA80F7018191882379F0803219F0FA83D0
:10501000E983F5CFE980FA80C70101969A838983F5
:10502000F70180818032B1F3C7010E94BB354B018B
:105030005C019701C901F9014191442359F04032C3
:1050400011F09F01F7CFC9012F5F3F4FFC01408155
:105050004032C9F30E94BB3569837A838B839C837A
:10506000F801E95BFF4F6B017C0195018401B301FD
:10507000A201808191810E94941466E97AE08EE613
:1050800093E000D422E030E0B301A2018EE693E089
:105090007DD961E97AE08EE693E0F4D323E030E055
:1050A000B501A4018EE693E071D96CE87AE08EE652
:1050B00093E0E8D322E049815A816B817C818EE6BE
:1050C00093E092D48EE693E011D477C046E050E0AE
:1050D0006FEA71E089819A810E941836892BD9F490
:1050E00089819A8106960E94BE359A838983898137
:1050F0008150883118F068E77AE05BC0F801E35B23
:10510000FF4F69818081918115D265E67AE08EE654
:1051100093E0B8D346C044E050E066EB71E089818B
:105120009A810E941836892B09F041C029813A8161
:105130002C5F3F4F3A832983C9010E94BE357C0111
:1051400089819A81FC012191222379F0203219F082
:10515000FA83E983F5CF89819A81FC013196FA833C
:10516000E983FC0120812032B1F30E94BE359A838D
:105170008983F801E15BFF4F49816E2D8081918128
:105180000E94EE0C66E57AE08EE693E07BD36E2D0E
:105190008EE693E00E9458146DE28EE693E00E9442
:1051A000A21A69818EE693E00E94F30E06C066E2C1
:1051B0007AE08EE693E00E94E10E2496E0E10C9402
:1051C0000F338D5A9F4FFC01808191810C94061FF3
:1051D000A0E0B0E0EEEEF8E20C94FB32EC016EEFF2
:1051E00079E08EE693E00E94E10EFE01ED5AFF4F5A
:1051F000808191810E94B71EFE01EB5BFF4F808191
:1052000091810E94361D8E01075B1F4FD8018D9141
:105210009C910E94290DD801ED91FC911282FE0112
:10522000E35BFF4F60E08081918101D2FE01E15B91
:10523000FF4F6FEF7FEF808191810E94CF0CFE01C5
:10524000EF5AFF4F808191810E94AB0BFE01EB5A18
:10525000FF4F808191810E94471AC95BDF4FC12CAB
:10526000D12C80E8E82E8FE3F82E0DEC1CEC2CE41A
:105270003EE340E050E060E870E4888199810E945C
:10528000961568EC79E08EE693E00E94E10ECDB7CA
:10529000DEB7E8E00C9417338B5A9F4FFC018081F6
:1052A00091810E94421A69E979E08EE693E00C94BC
:1052B000E10ECF93DF93EC01FC01EB5BFF4F8081AC
:1052C00091810E94101E882331F0C35BDF4F8881DB
:1052D00099813DD106C063E779E08EE693E00E94B4
:1052E000E10EDF91CF9108950F931F93CF93DF933A
:1052F0008C01EB016F5F7F4F88818032D1F36BEBC4
:1053000071E0CE010E94F535892B39F060EC71E037
:10531000CE010E940836892B19F4C801CAD99CC055
:1053200062EC71E0CE010E94F535892B19F40E94E0
:10533000C61B92C047E050E06AEC71E0CE010E94CB
:105340001836892B31F4BE01695F7F4FC8012DDA11
:1053500083C062ED71E0CE010E94F535892B19F40E
:10536000C80171DA79C068ED71E0CE010E94F535AF
:10537000892B19F4C801F3DA6FC06DED71E0CE012D
:105380000E94F535892B19F4C80127DB65C066EE4C
:1053900071E0CE010E94F535892B19F4C8014DDB6F
:1053A0005BC06CEE71E0CE010E94F535892B19F4DB
:1053B000C80171DB51C063EF71E0CE010E94F53589
:1053C000892B19F4C801AADB47C044E050E06AEF1A
:1053D00071E0CE010E941836892B31F4BE016C5F5A
:1053E0007F4FC80144DD38C06FEF71E0CE010E94ED
:1053F000F535892B19F4C801E4DE2EC063E072E0B4
:10540000CE010E94F535892B19F4C801E1DE24C0D4
:1054100069E072E0CE010E94F535892B19F4C801CC
:105420003BDF1AC061E172E0CE010E94F535892BA5
:1054300019F4C8013EDF10C06AE972E18EE693E01C
:1054400021D2BE018EE693E00E94C92166E772E197
:105450008EE693E00E94E10EDF91CF911F910F91B4
:1054600008950F931F93CF93DF93EC018C01005CA1
:105470001F4F8EE693E069D6892B11F18EE693E0FB
:105480009DD69C01F8018A3011F08D3071F4808135
:10549000882379F3FE01E80FF11D1082BE01CE01D1
:1054A00023DFF801108281E00CC090819F3308F760
:1054B00081E0890F8083FE01E90FF11D2083D9CFA0
:1054C00080E0DF91CF911F910F910895FC01108230
:1054D000118212828AE590E09483838385E085833C
:1054E00016821782108611861286138614861586F8
:1054F000168684EF91E0908B8787118A128A138A2F
:10550000148A158A168A178A108E0895509A519A0D
:10551000819A899A589824B52F7D24BD5998E0EB3B
:10552000F0E020812F7D20832FE934E2FC01308BD5
:1055300027870895FC01662311F0658302C081E08E
:1055400085838581893110F088E185830895CF9323
:10555000DF93EC018981811167C02B813C81A0E838
:10556000BCE00E94D23228E631E040E050E0EFD7C4
:105570002B873C874D875E872F83388749875A87DB
:105580001D8A1E8A1F8A188E8A8181114BC05998E4
:105590008091B0008F7D8093B000899880E991E080
:1055A0000197F1F781E0898393D3698B7A8B8B8B99
:1055B0009C8B65EC73E18EE693E064D14E8150E004
:1055C0004F5F5F4F052E000C660B770B8EE693E066
:1055D000FED163EC73E18EE693E054D16D818EE6EB
:1055E00093E00E9458146FEB73E18EE693E04AD18A
:1055F0004B815C8160E070E020E08EE693E08ED12C
:105600006AEB73E18EE693E03DD18A81811103C09C
:1056100063EB73E102C067EB73E18EE693E00E94F7
:10562000E10E02C0599AB4CFDF91CF910895FC01E9
:105630006083611106C0118217821086118612865E
:10564000899A0895FC0116820895CF92DF92EF9215
:10565000FF92CF93FC016A017B018081882309F1CD
:10566000C6812581C217E8F4222349F030E040E0EA
:1056700050E060E675E381E090E069D704C020E87F
:1056800031E541E050E0AC2FB0E01196A4D7C6164A
:10569000D706E806F90628F46C197D098E099F09DA
:1056A00003C060E070E0CB01CF91FF90EF90DF90FE
:1056B000CF900895CF92DF92EF92FF92CF93DF9336
:1056C000FC0185899689A789B08D478150856185C0
:1056D000728584179507A607B70710F4AC01BD01C2
:1056E000483C51056105710520F5C785D08988ECD6
:1056F000C82ED12CE12CF12CD701C601841B950BAF
:10570000A60BB70B9C01AD01DE015BD7A70196018B
:105710001ED7CE01820F931FC817D90750F4C901B5
:10572000029738F031F0880F991F880F991F019761
:10573000F1F7589A84B58F7D84BD88E081500000D0
:10574000E9F7589884B58F7D84BDDF91CF91FF90A4
:10575000EF90DF90CF900895CF92DF92EF92FF927B
:105760001F93CF93DF93FC012081222309F482C091
:105770006A017B01EC018181882309F45DC0A8D214
:105780006B017C0181899289A389B489B701A60143
:10579000481B590B6A0B7B0B87859089A0E0B0E012
:1057A000481759076A077B0708F464C0CF0182DFF6
:1057B000C98ADA8AEB8AFC8A8F819885A985BA859D
:1057C0000197A109B1098F839887A987BA874D8965
:1057D0005E896F89788D4F5F5F4F6F4F7F4F4D8B25
:1057E0005E8B6F8B788F892B8A2B8B2B09F042C0B5
:1057F00019828E818F5F8E839A8181E089278A83C7
:10580000899A6AEE73E18EE693E03CD06E818EE673
:1058100093E00E94581468EE73E18EE693E032D074
:105820006D818EE693E00E9458146DED73E18EE673
:1058300093E00E94E10E1EC0168125811217D0F45C
:10584000222349F030E040E050E060E675E381E07B
:1058500090E07DD604C020E831E541E050E0A12F82
:10586000B0E01196B8D6C616D706E806F90610F0CD
:10587000CE016DDEDF91CF911F91FF90EF90DF9011
:10588000CF900895A0E2B0E0E7E4FCE2B0C64C019E
:105890006B01CB010E94EC357C01A12CB12CE114F1
:1058A000F10401F1870181E2E816F10410F000E251
:1058B00010E0A801B601CE0101960E94E335C00EAA
:1058C000D11EE01AF10AD401ED91FC910280F3811E
:1058D000E02DA801BE016F5F7F4FC4010995A80E9E
:1058E000B91EDDCFC501A096ECE09DC6A2E0B0E0F8
:1058F000EBE7FCE286C62DE029832AE02A83DC015F
:10590000ED91FC910280F381E02D42E050E0BE0178
:105910006F5F7F4F09952296E2E08FC6ABE0B0E063
:10592000E3E9FCE26AC6A22F7E012CE0E20EF11C44
:105930008A019B01E3E30E9F00270E0E011DF02D4F
:105940001E9F1127000D111D2E9F2227100D211DB6
:105950003E9F3327200D311D1124F00F011F121F10
:10596000231F311DF10F021F131F211D311DF30FC6
:10597000011D111D211D311D369527951795079580
:10598000F795EAE0FE9FF12D1124B901A80130E35B
:105990003F0FF70132937F014115510561057105F4
:1059A00009F0C6CFAA2319F02DE222937F01AE01A0
:1059B0004E195F09445F5F4FDC01ED91FC9102805D
:1059C000F381E02DB70109952B96E6E032C677FF0B
:1059D00009C070956095509541955F4F6F4F7F4F0F
:1059E00021E001C020E09ACFA8E0B0E0E9EFFCE2BE
:1059F000FAC57C012A013B01D22E20E030E0A9014A
:105A0000C301B2018AD687FF06C077FA709477F88F
:105A1000709401E001C000E010E060E070E080E020
:105A20009FE31D1541F02DEC3CEC4CEC5DE30E9436
:105A300025351F5FF6CF9B01AC01C301B20109D62A
:105A40002B013C01DBD64B015C01202FAB01BC01DB
:105A5000C70164DF6C01112309F439C0C501B40129
:105A6000F9D69B01AC01C301B201F2D52EE2298324
:105A70005E0122E0A20EB11C183008F017E01F5F93
:105A800001E020E030E040E251E4DFD72B013C01AF
:105A9000B5D60F5F20E3260FD5012D935D0170E091
:105AA00080E090E0D9D69B01AC01C301B201D0D512
:105AB0000113E7CF402F50E0D701ED91FC91028018
:105AC000F381E02DBE016F5F7F4FC7010995C601CD
:105AD0002896E0E1A4C526D00E94B2120E940A0FC7
